{
  "_format": "hh-sol-artifact-1",
  "contractName": "NFTEpicGame",
  "sourceName": "contracts/NFTEpicGame.sol",
  "abi": [
    {
      "inputs": [
        {
          "internalType": "string[]",
          "name": "characterName",
          "type": "string[]"
        },
        {
          "internalType": "string[]",
          "name": "characterImageURI",
          "type": "string[]"
        },
        {
          "internalType": "uint256[]",
          "name": "characterMaxHp",
          "type": "uint256[]"
        },
        {
          "internalType": "uint256[][]",
          "name": "characterAttacks",
          "type": "uint256[][]"
        },
        {
          "internalType": "string",
          "name": "bossName",
          "type": "string"
        },
        {
          "internalType": "string",
          "name": "bossImageURI",
          "type": "string"
        },
        {
          "internalType": "uint256",
          "name": "bossHp",
          "type": "uint256"
        },
        {
          "internalType": "uint256",
          "name": "bossAttackDamage",
          "type": "uint256"
        },
        {
          "internalType": "address",
          "name": "epicTokenAddress",
          "type": "address"
        }
      ],
      "stateMutability": "nonpayable",
      "type": "constructor"
    },
    {
      "anonymous": false,
      "inputs": [
        {
          "indexed": true,
          "internalType": "address",
          "name": "owner",
          "type": "address"
        },
        {
          "indexed": true,
          "internalType": "address",
          "name": "approved",
          "type": "address"
        },
        {
          "indexed": true,
          "internalType": "uint256",
          "name": "tokenId",
          "type": "uint256"
        }
      ],
      "name": "Approval",
      "type": "event"
    },
    {
      "anonymous": false,
      "inputs": [
        {
          "indexed": true,
          "internalType": "address",
          "name": "owner",
          "type": "address"
        },
        {
          "indexed": true,
          "internalType": "address",
          "name": "operator",
          "type": "address"
        },
        {
          "indexed": false,
          "internalType": "bool",
          "name": "approved",
          "type": "bool"
        }
      ],
      "name": "ApprovalForAll",
      "type": "event"
    },
    {
      "anonymous": false,
      "inputs": [
        {
          "indexed": false,
          "internalType": "uint256",
          "name": "newBossHp",
          "type": "uint256"
        },
        {
          "indexed": false,
          "internalType": "uint256",
          "name": "newPlayerHp",
          "type": "uint256"
        }
      ],
      "name": "AttackComplete",
      "type": "event"
    },
    {
      "anonymous": false,
      "inputs": [
        {
          "indexed": false,
          "internalType": "address",
          "name": "sender",
          "type": "address"
        },
        {
          "indexed": false,
          "internalType": "uint256",
          "name": "tokenId",
          "type": "uint256"
        },
        {
          "indexed": false,
          "internalType": "uint256",
          "name": "characterIndex",
          "type": "uint256"
        }
      ],
      "name": "CharacterNFTMinted",
      "type": "event"
    },
    {
      "anonymous": false,
      "inputs": [
        {
          "indexed": true,
          "internalType": "address",
          "name": "previousOwner",
          "type": "address"
        },
        {
          "indexed": true,
          "internalType": "address",
          "name": "newOwner",
          "type": "address"
        }
      ],
      "name": "OwnershipTransferred",
      "type": "event"
    },
    {
      "anonymous": false,
      "inputs": [
        {
          "indexed": true,
          "internalType": "address",
          "name": "from",
          "type": "address"
        },
        {
          "indexed": true,
          "internalType": "address",
          "name": "to",
          "type": "address"
        },
        {
          "indexed": true,
          "internalType": "uint256",
          "name": "tokenId",
          "type": "uint256"
        }
      ],
      "name": "Transfer",
      "type": "event"
    },
    {
      "inputs": [
        {
          "internalType": "string[]",
          "name": "attackNames",
          "type": "string[]"
        },
        {
          "internalType": "string[]",
          "name": "attackImages",
          "type": "string[]"
        },
        {
          "internalType": "uint256[]",
          "name": "attackDamages",
          "type": "uint256[]"
        },
        {
          "internalType": "uint256[]",
          "name": "attackIndexes",
          "type": "uint256[]"
        }
      ],
      "name": "addAttacks",
      "outputs": [],
      "stateMutability": "nonpayable",
      "type": "function"
    },
    {
      "inputs": [
        {
          "internalType": "string[]",
          "name": "specialAttackNames",
          "type": "string[]"
        },
        {
          "internalType": "string[]",
          "name": "specialAttackImages",
          "type": "string[]"
        },
        {
          "internalType": "uint256[]",
          "name": "specialAttackDamages",
          "type": "uint256[]"
        },
        {
          "internalType": "uint256[]",
          "name": "specialAttackPrices",
          "type": "uint256[]"
        },
        {
          "internalType": "uint256[]",
          "name": "specialAttackIndexes",
          "type": "uint256[]"
        }
      ],
      "name": "addSpecialAttacks",
      "outputs": [],
      "stateMutability": "nonpayable",
      "type": "function"
    },
    {
      "inputs": [
        {
          "internalType": "address",
          "name": "to",
          "type": "address"
        },
        {
          "internalType": "uint256",
          "name": "tokenId",
          "type": "uint256"
        }
      ],
      "name": "approve",
      "outputs": [],
      "stateMutability": "nonpayable",
      "type": "function"
    },
    {
      "inputs": [
        {
          "internalType": "uint256",
          "name": "attackIndex",
          "type": "uint256"
        }
      ],
      "name": "attackBoss",
      "outputs": [],
      "stateMutability": "nonpayable",
      "type": "function"
    },
    {
      "inputs": [
        {
          "internalType": "address",
          "name": "owner",
          "type": "address"
        }
      ],
      "name": "balanceOf",
      "outputs": [
        {
          "internalType": "uint256",
          "name": "",
          "type": "uint256"
        }
      ],
      "stateMutability": "view",
      "type": "function"
    },
    {
      "inputs": [],
      "name": "bigBoss",
      "outputs": [
        {
          "internalType": "string",
          "name": "name",
          "type": "string"
        },
        {
          "internalType": "string",
          "name": "imageURI",
          "type": "string"
        },
        {
          "internalType": "uint256",
          "name": "hp",
          "type": "uint256"
        },
        {
          "internalType": "uint256",
          "name": "maxHp",
          "type": "uint256"
        },
        {
          "internalType": "uint256",
          "name": "attackDamage",
          "type": "uint256"
        }
      ],
      "stateMutability": "view",
      "type": "function"
    },
    {
      "inputs": [
        {
          "internalType": "uint256",
          "name": "specialAttackIndex",
          "type": "uint256"
        }
      ],
      "name": "buySpecialAttack",
      "outputs": [],
      "stateMutability": "payable",
      "type": "function"
    },
    {
      "inputs": [],
      "name": "checkIfUserHasNFT",
      "outputs": [
        {
          "components": [
            {
              "internalType": "uint256",
              "name": "characterIndex",
              "type": "uint256"
            },
            {
              "internalType": "string",
              "name": "name",
              "type": "string"
            },
            {
              "internalType": "string",
              "name": "imageURI",
              "type": "string"
            },
            {
              "internalType": "uint256",
              "name": "hp",
              "type": "uint256"
            },
            {
              "internalType": "uint256",
              "name": "maxHp",
              "type": "uint256"
            },
            {
              "internalType": "uint256[]",
              "name": "attacks",
              "type": "uint256[]"
            },
            {
              "internalType": "uint256[]",
              "name": "specialAttacks",
              "type": "uint256[]"
            }
          ],
          "internalType": "struct NFTEpicGame.CharacterAttributes",
          "name": "",
          "type": "tuple"
        }
      ],
      "stateMutability": "view",
      "type": "function"
    },
    {
      "inputs": [],
      "name": "getAllAttacks",
      "outputs": [
        {
          "components": [
            {
              "internalType": "uint256",
              "name": "attackIndex",
              "type": "uint256"
            },
            {
              "internalType": "string",
              "name": "attackName",
              "type": "string"
            },
            {
              "internalType": "uint256",
              "name": "attackDamage",
              "type": "uint256"
            },
            {
              "internalType": "string",
              "name": "attackImage",
              "type": "string"
            }
          ],
          "internalType": "struct NFTEpicGame.AttackType[]",
          "name": "",
          "type": "tuple[]"
        }
      ],
      "stateMutability": "view",
      "type": "function"
    },
    {
      "inputs": [],
      "name": "getAllDefaultCharacters",
      "outputs": [
        {
          "components": [
            {
              "internalType": "uint256",
              "name": "characterIndex",
              "type": "uint256"
            },
            {
              "internalType": "string",
              "name": "name",
              "type": "string"
            },
            {
              "internalType": "string",
              "name": "imageURI",
              "type": "string"
            },
            {
              "internalType": "uint256",
              "name": "hp",
              "type": "uint256"
            },
            {
              "internalType": "uint256",
              "name": "maxHp",
              "type": "uint256"
            },
            {
              "internalType": "uint256[]",
              "name": "attacks",
              "type": "uint256[]"
            },
            {
              "internalType": "uint256[]",
              "name": "specialAttacks",
              "type": "uint256[]"
            }
          ],
          "internalType": "struct NFTEpicGame.CharacterAttributes[]",
          "name": "",
          "type": "tuple[]"
        }
      ],
      "stateMutability": "view",
      "type": "function"
    },
    {
      "inputs": [],
      "name": "getAllSpecialAttacks",
      "outputs": [
        {
          "components": [
            {
              "internalType": "uint256",
              "name": "price",
              "type": "uint256"
            },
            {
              "internalType": "uint256",
              "name": "specialAttackIndex",
              "type": "uint256"
            },
            {
              "internalType": "string",
              "name": "specialAttackName",
              "type": "string"
            },
            {
              "internalType": "uint256",
              "name": "specialAttackDamage",
              "type": "uint256"
            },
            {
              "internalType": "string",
              "name": "specialAttackImage",
              "type": "string"
            }
          ],
          "internalType": "struct NFTEpicGame.SpecialAttackType[]",
          "name": "",
          "type": "tuple[]"
        }
      ],
      "stateMutability": "view",
      "type": "function"
    },
    {
      "inputs": [
        {
          "internalType": "uint256",
          "name": "tokenId",
          "type": "uint256"
        }
      ],
      "name": "getApproved",
      "outputs": [
        {
          "internalType": "address",
          "name": "",
          "type": "address"
        }
      ],
      "stateMutability": "view",
      "type": "function"
    },
    {
      "inputs": [],
      "name": "getBigBoss",
      "outputs": [
        {
          "components": [
            {
              "internalType": "string",
              "name": "name",
              "type": "string"
            },
            {
              "internalType": "string",
              "name": "imageURI",
              "type": "string"
            },
            {
              "internalType": "uint256",
              "name": "hp",
              "type": "uint256"
            },
            {
              "internalType": "uint256",
              "name": "maxHp",
              "type": "uint256"
            },
            {
              "internalType": "uint256",
              "name": "attackDamage",
              "type": "uint256"
            }
          ],
          "internalType": "struct NFTEpicGame.BigBoss",
          "name": "",
          "type": "tuple"
        }
      ],
      "stateMutability": "view",
      "type": "function"
    },
    {
      "inputs": [
        {
          "internalType": "address",
          "name": "owner",
          "type": "address"
        },
        {
          "internalType": "address",
          "name": "operator",
          "type": "address"
        }
      ],
      "name": "isApprovedForAll",
      "outputs": [
        {
          "internalType": "bool",
          "name": "",
          "type": "bool"
        }
      ],
      "stateMutability": "view",
      "type": "function"
    },
    {
      "inputs": [
        {
          "internalType": "uint256",
          "name": "_characterIndex",
          "type": "uint256"
        }
      ],
      "name": "mintCharacterNFT",
      "outputs": [],
      "stateMutability": "payable",
      "type": "function"
    },
    {
      "inputs": [],
      "name": "name",
      "outputs": [
        {
          "internalType": "string",
          "name": "",
          "type": "string"
        }
      ],
      "stateMutability": "view",
      "type": "function"
    },
    {
      "inputs": [
        {
          "internalType": "uint256",
          "name": "",
          "type": "uint256"
        }
      ],
      "name": "nftHolderAttributes",
      "outputs": [
        {
          "internalType": "uint256",
          "name": "characterIndex",
          "type": "uint256"
        },
        {
          "internalType": "string",
          "name": "name",
          "type": "string"
        },
        {
          "internalType": "string",
          "name": "imageURI",
          "type": "string"
        },
        {
          "internalType": "uint256",
          "name": "hp",
          "type": "uint256"
        },
        {
          "internalType": "uint256",
          "name": "maxHp",
          "type": "uint256"
        }
      ],
      "stateMutability": "view",
      "type": "function"
    },
    {
      "inputs": [
        {
          "internalType": "address",
          "name": "",
          "type": "address"
        }
      ],
      "name": "nftHolders",
      "outputs": [
        {
          "internalType": "uint256",
          "name": "",
          "type": "uint256"
        }
      ],
      "stateMutability": "view",
      "type": "function"
    },
    {
      "inputs": [],
      "name": "owner",
      "outputs": [
        {
          "internalType": "address",
          "name": "",
          "type": "address"
        }
      ],
      "stateMutability": "view",
      "type": "function"
    },
    {
      "inputs": [
        {
          "internalType": "uint256",
          "name": "tokenId",
          "type": "uint256"
        }
      ],
      "name": "ownerOf",
      "outputs": [
        {
          "internalType": "address",
          "name": "",
          "type": "address"
        }
      ],
      "stateMutability": "view",
      "type": "function"
    },
    {
      "inputs": [],
      "name": "renounceOwnership",
      "outputs": [],
      "stateMutability": "nonpayable",
      "type": "function"
    },
    {
      "inputs": [
        {
          "internalType": "address",
          "name": "from",
          "type": "address"
        },
        {
          "internalType": "address",
          "name": "to",
          "type": "address"
        },
        {
          "internalType": "uint256",
          "name": "tokenId",
          "type": "uint256"
        }
      ],
      "name": "safeTransferFrom",
      "outputs": [],
      "stateMutability": "nonpayable",
      "type": "function"
    },
    {
      "inputs": [
        {
          "internalType": "address",
          "name": "from",
          "type": "address"
        },
        {
          "internalType": "address",
          "name": "to",
          "type": "address"
        },
        {
          "internalType": "uint256",
          "name": "tokenId",
          "type": "uint256"
        },
        {
          "internalType": "bytes",
          "name": "_data",
          "type": "bytes"
        }
      ],
      "name": "safeTransferFrom",
      "outputs": [],
      "stateMutability": "nonpayable",
      "type": "function"
    },
    {
      "inputs": [
        {
          "internalType": "address",
          "name": "operator",
          "type": "address"
        },
        {
          "internalType": "bool",
          "name": "approved",
          "type": "bool"
        }
      ],
      "name": "setApprovalForAll",
      "outputs": [],
      "stateMutability": "nonpayable",
      "type": "function"
    },
    {
      "inputs": [
        {
          "internalType": "bytes4",
          "name": "interfaceId",
          "type": "bytes4"
        }
      ],
      "name": "supportsInterface",
      "outputs": [
        {
          "internalType": "bool",
          "name": "",
          "type": "bool"
        }
      ],
      "stateMutability": "view",
      "type": "function"
    },
    {
      "inputs": [],
      "name": "symbol",
      "outputs": [
        {
          "internalType": "string",
          "name": "",
          "type": "string"
        }
      ],
      "stateMutability": "view",
      "type": "function"
    },
    {
      "inputs": [
        {
          "internalType": "uint256",
          "name": "_tokenId",
          "type": "uint256"
        }
      ],
      "name": "tokenURI",
      "outputs": [
        {
          "internalType": "string",
          "name": "",
          "type": "string"
        }
      ],
      "stateMutability": "view",
      "type": "function"
    },
    {
      "inputs": [
        {
          "internalType": "address",
          "name": "from",
          "type": "address"
        },
        {
          "internalType": "address",
          "name": "to",
          "type": "address"
        },
        {
          "internalType": "uint256",
          "name": "tokenId",
          "type": "uint256"
        }
      ],
      "name": "transferFrom",
      "outputs": [],
      "stateMutability": "nonpayable",
      "type": "function"
    },
    {
      "inputs": [
        {
          "internalType": "address",
          "name": "newOwner",
          "type": "address"
        }
      ],
      "name": "transferOwnership",
      "outputs": [],
      "stateMutability": "nonpayable",
      "type": "function"
    }
  ],
  "bytecode": "0x60806040523480156200001157600080fd5b506040516200527a3803806200527a833981016040819052620000349162000b14565b60408051808201825260068152654865726f657360d01b6020808301918252835180850190945260048452634845524f60e01b9084015281519192916200007e9160009162000837565b5080516200009490600190602084019062000837565b5050600160065550620000b0620000aa62000760565b62000764565b600980546001600160a01b0319166001600160a01b03831617905560005b89518110156200056057620000e2620008c6565b8181528a518b90839081106200010857634e487b7160e01b600052603260045260246000fd5b602002602001015181602001819052508982815181106200013957634e487b7160e01b600052603260045260246000fd5b602002602001015181604001819052508882815181106200016a57634e487b7160e01b600052603260045260246000fd5b60200260200101518160600181815250508882815181106200019c57634e487b7160e01b600052603260045260246000fd5b6020026020010151816080018181525050878281518110620001ce57634e487b7160e01b600052603260045260246000fd5b60209081029190910181015160a083015260118054600181018255600091909152825160079091027f31ecc21a745e3968a04e9570e4425bc18fa8019c68028196b546d1669c200c688101918255838301518051859462000254937f31ecc21a745e3968a04e9570e4425bc18fa8019c68028196b546d1669c200c690192019062000837565b50604082015180516200027291600284019160209091019062000837565b50606082015160038201556080820151600482015560a08201518051620002a491600584019160209091019062000903565b5060c08201518051620002c291600684019160209091019062000903565b505050600060118381548110620002e957634e487b7160e01b600052603260045260246000fd5b90600052602060002090600702016040518060e0016040529081600082015481526020016001820180546200031e9062000d3b565b80601f01602080910402602001604051908101604052809291908181526020018280546200034c9062000d3b565b80156200039d5780601f1062000371576101008083540402835291602001916200039d565b820191906000526020600020905b8154815290600101906020018083116200037f57829003601f168201915b50505050508152602001600282018054620003b89062000d3b565b80601f0160208091040260200160405190810160405280929190818152602001828054620003e69062000d3b565b8015620004375780601f106200040b5761010080835404028352916020019162000437565b820191906000526020600020905b8154815290600101906020018083116200041957829003601f168201915b50505050508152602001600382015481526020016004820154815260200160058201805480602002602001604051908101604052809291908181526020018280548015620004a557602002820191906000526020600020905b81548152602001906001019080831162000490575b5050505050815260200160068201805480602002602001604051908101604052809291908181526020018280548015620004ff57602002820191906000526020600020905b815481526020019060010190808311620004ea575b5050505050815250509050620005486040518060600160405280602581526020016200522b60259139826020015183606001518460400151620007b660201b620024fe1760201c565b50508080620005579062000d78565b915050620000ce565b506200057860086200080d60201b620025471760201c565b6040805160a0810182528681526020808201879052918101859052606081018590526080810184905286519091600c91620005b9918391908a019062000837565b506020828101518051620005d4926001850192019062000837565b50604082015181600201556060820151816003015560808201518160040155905050620007516040518060600160405280602a815260200162005250602a9139600c8054620006239062000d3b565b80601f0160208091040260200160405190810160405280929190818152602001828054620006519062000d3b565b8015620006a25780601f106200067657610100808354040283529160200191620006a2565b820191906000526020600020905b8154815290600101906020018083116200068457829003601f168201915b5050600e54600d80549194509250620006bc915062000d3b565b80601f0160208091040260200160405190810160405280929190818152602001828054620006ea9062000d3b565b80156200073b5780601f106200070f576101008083540402835291602001916200073b565b820191906000526020600020905b8154815290600101906020018083116200071d57829003601f168201915b5050505050620007b660201b620024fe1760201c565b50505050505050505062000db6565b3390565b600780546001600160a01b038381166001600160a01b0319831681179093556040519116919082907f8be0079c531659141344cd1fd0a4f28419497f9722a3daafe3b4186f6b6457e090600090a35050565b6200080784848484604051602401620007d3949392919062000c6a565b60408051601f198184030181529190526020810180516001600160e01b03908116638d142cdd60e01b179091526200081616565b50505050565b80546001019055565b80516a636f6e736f6c652e6c6f67602083016000808483855afa5050505050565b828054620008459062000d3b565b90600052602060002090601f016020900481019282620008695760008555620008b4565b82601f106200088457805160ff1916838001178555620008b4565b82800160010185558215620008b4579182015b82811115620008b457825182559160200191906001019062000897565b50620008c292915062000940565b5090565b6040518060e00160405280600081526020016060815260200160608152602001600081526020016000815260200160608152602001606081525090565b828054828255906000526020600020908101928215620008b45791602002820182811115620008b457825182559160200191906001019062000897565b5b80821115620008c2576000815560010162000941565b80516001600160a01b03811681146200096f57600080fd5b919050565b600082601f83011262000985578081fd5b815160206200099e620009988362000ce6565b62000cba565b82815281810190858301855b85811015620009d757620009c4898684518b010162000a41565b84529284019290840190600101620009aa565b5090979650505050505050565b600082601f830112620009f5578081fd5b8151602062000a08620009988362000ce6565b82815281810190858301855b85811015620009d75762000a2e898684518b010162000aa2565b8452928401929084019060010162000a14565b600082601f83011262000a52578081fd5b8151602062000a65620009988362000ce6565b828152818101908583018385028701840188101562000a82578586fd5b855b85811015620009d75781518452928401929084019060010162000a84565b600082601f83011262000ab3578081fd5b81516001600160401b0381111562000acf5762000acf62000da0565b62000ae4601f8201601f191660200162000cba565b81815284602083860101111562000af9578283fd5b62000b0c82602083016020870162000d0c565b949350505050565b60008060008060008060008060006101208a8c03121562000b33578485fd5b89516001600160401b038082111562000b4a578687fd5b62000b588d838e01620009e4565b9a5060208c015191508082111562000b6e578687fd5b62000b7c8d838e01620009e4565b995060408c015191508082111562000b92578687fd5b62000ba08d838e0162000a41565b985060608c015191508082111562000bb6578687fd5b62000bc48d838e0162000974565b975060808c015191508082111562000bda578687fd5b62000be88d838e0162000aa2565b965060a08c015191508082111562000bfe578586fd5b5062000c0d8c828d0162000aa2565b94505060c08a0151925060e08a0151915062000c2d6101008b0162000957565b90509295985092959850929598565b6000815180845262000c5681602086016020860162000d0c565b601f01601f19169290920160200192915050565b60006080825262000c7f608083018762000c3c565b828103602084015262000c93818762000c3c565b9050846040840152828103606084015262000caf818562000c3c565b979650505050505050565b6040518181016001600160401b038111828210171562000cde5762000cde62000da0565b604052919050565b60006001600160401b0382111562000d025762000d0262000da0565b5060209081020190565b60005b8381101562000d2957818101518382015260200162000d0f565b83811115620008075750506000910152565b60028104600182168062000d5057607f821691505b6020821081141562000d7257634e487b7160e01b600052602260045260246000fd5b50919050565b600060001982141562000d9957634e487b7160e01b81526011600452602481fd5b5060010190565b634e487b7160e01b600052604160045260246000fd5b6144658062000dc66000396000f3fe6080604052600436106101c25760003560e01c8063715018a6116100f7578063a9c3267911610095578063c8cf27f411610064578063c8cf27f41461050c578063e985e9c51461052e578063f2fde38b1461054e578063f8b81ef71461056e576101c2565b8063a9c3267914610484578063b88d4fde146104aa578063b953084e146104ca578063c87b56dd146104ec576101c2565b80638da5cb5b116100d15780638da5cb5b1461040957806395d89b411461041e57806398da4c9514610433578063a22cb46514610464576101c2565b8063715018a6146103c15780637df124a1146103d657806386a02f86146103f6576101c2565b806323b872dd1161016457806342842e0e1161013e57806342842e0e1461033257806355e71eae146103525780636352211e1461037457806370a0823114610394576101c2565b806323b872dd146102d05780632854485d146102f0578063316afe6314610312576101c2565b806306fdde03116101a057806306fdde0314610241578063081812fc14610263578063095ea7b31461029057806314ce5139146102b0576101c2565b806301ffc9a7146101c75780630619f932146101fd5780630665f9611461021f575b600080fd5b3480156101d357600080fd5b506101e76101e2366004613408565b610581565b6040516101f49190613995565b60405180910390f35b34801561020957600080fd5b5061021d610218366004613440565b6105c9565b005b34801561022b57600080fd5b506102346107c6565b6040516101f491906140fa565b34801561024d57600080fd5b50610256610923565b6040516101f491906139a0565b34801561026f57600080fd5b5061028361027e366004613440565b6109b5565b6040516101f49190613756565b34801561029c57600080fd5b5061021d6102ab36600461325b565b6109f8565b3480156102bc57600080fd5b5061021d6102cb366004613320565b610a90565b3480156102dc57600080fd5b5061021d6102eb366004613171565b610c8f565b3480156102fc57600080fd5b50610305610cc7565b6040516101f49190613806565b34801561031e57600080fd5b5061021d61032d366004613284565b610e5e565b34801561033e57600080fd5b5061021d61034d366004613171565b611066565b34801561035e57600080fd5b50610367611081565b6040516101f491906138ff565b34801561038057600080fd5b5061028361038f366004613440565b611219565b3480156103a057600080fd5b506103b46103af36600461311e565b61124e565b6040516101f49190614171565b3480156103cd57600080fd5b5061021d611292565b3480156103e257600080fd5b506103b46103f136600461311e565b6112dd565b61021d610404366004613440565b6112ef565b34801561041557600080fd5b5061028361140f565b34801561042a57600080fd5b5061025661141e565b34801561043f57600080fd5b5061045361044e366004613440565b61142d565b6040516101f495949392919061417a565b34801561047057600080fd5b5061021d61047f366004613225565b61156c565b34801561049057600080fd5b50610499611582565b6040516101f49594939291906139fd565b3480156104b657600080fd5b5061021d6104c53660046131ac565b6116b4565b3480156104d657600080fd5b506104df6116ed565b6040516101f4919061389f565b3480156104f857600080fd5b50610256610507366004613440565b611935565b34801561051857600080fd5b50610521611bd8565b6040516101f4919061415e565b34801561053a57600080fd5b506101e761054936600461313f565b611e23565b34801561055a57600080fd5b5061021d61056936600461311e565b611e51565b61021d61057c366004613440565b611ec2565b60006001600160e01b031982166380ac58cd60e01b14806105b257506001600160e01b03198216635b5e139f60e01b145b806105c157506105c182612550565b90505b919050565b33600090815260136020908152604080832054808452601290925290912060038101546106115760405162461bcd60e51b815260040161060890613dc3565b60405180910390fd5b600e546106305760405162461bcd60e51b815260040161060890613b1f565b6000805b60058301548110156106bd5782600501818154811061066357634e487b7160e01b600052603260045260246000fd5b90600052602060002001548514156106ab57600a858154811061069657634e487b7160e01b600052603260045260246000fd5b90600052602060002090600402016002015491505b806106b5816142df565b915050610634565b50600081116106de5760405162461bcd60e51b815260040161060890613c19565b600e548111156106f2576000600e55610704565b600e54610700908290614261565b600e555b6010546003830154101561071e5760006003830155610736565b60105460038301546107309190614261565b60038301555b61075a60405180606001604052806025815260200161437560259139600e54612569565b6107806040518060600160405280602881526020016143da602891398360030154612569565b600e5460038301546040517f838ab28464562786a6c4ab2311964b82fa60bd9b14aa7e856af1f3f18d41a414926107b89290916141ba565b60405180910390a150505050565b6107ce612e9e565b600c6040518060a00160405290816000820180546107eb906142a4565b80601f0160208091040260200160405190810160405280929190818152602001828054610817906142a4565b80156108645780601f1061083957610100808354040283529160200191610864565b820191906000526020600020905b81548152906001019060200180831161084757829003601f168201915b5050505050815260200160018201805461087d906142a4565b80601f01602080910402602001604051908101604052809291908181526020018280546108a9906142a4565b80156108f65780601f106108cb576101008083540402835291602001916108f6565b820191906000526020600020905b8154815290600101906020018083116108d957829003601f168201915b50505050508152602001600282015481526020016003820154815260200160048201548152505090505b90565b606060008054610932906142a4565b80601f016020809104026020016040519081016040528092919081815260200182805461095e906142a4565b80156109ab5780601f10610980576101008083540402835291602001916109ab565b820191906000526020600020905b81548152906001019060200180831161098e57829003601f168201915b5050505050905090565b60006109c0826125ae565b6109dc5760405162461bcd60e51b815260040161060890613e45565b506000908152600460205260409020546001600160a01b031690565b6000610a0382611219565b9050806001600160a01b0316836001600160a01b03161415610a375760405162461bcd60e51b815260040161060890613f0f565b806001600160a01b0316610a496125cb565b6001600160a01b03161480610a655750610a65816105496125cb565b610a815760405162461bcd60e51b815260040161060890613cd3565b610a8b83836125cf565b505050565b610a986125cb565b6001600160a01b0316610aa961140f565b6001600160a01b031614610acf5760405162461bcd60e51b815260040161060890613e91565b60005b8151811015610c4957600b6040518060a00160405280858481518110610b0857634e487b7160e01b600052603260045260246000fd5b60200260200101518152602001848481518110610b3557634e487b7160e01b600052603260045260246000fd5b60200260200101518152602001888481518110610b6257634e487b7160e01b600052603260045260246000fd5b60200260200101518152602001868481518110610b8f57634e487b7160e01b600052603260045260246000fd5b60200260200101518152602001878481518110610bbc57634e487b7160e01b600052603260045260246000fd5b6020908102919091018101519091528254600181810185556000948552938290208351600590920201908155828201519381019390935560408201518051929392610c0d9260028501920190612ecd565b506060820151600382015560808201518051610c33916004840191602090910190612ecd565b5050508080610c41906142df565b915050610ad2565b50610c886040518060400160405280601f81526020017f446f6e6520616464696e6720616c6c207370656369616c2061747461636b730081525061263d565b5050505050565b610ca0610c9a6125cb565b82612680565b610cbc5760405162461bcd60e51b81526004016106089061400a565b610a8b838383612705565b6060600a805480602002602001604051908101604052809291908181526020016000905b82821015610e55578382906000526020600020906004020160405180608001604052908160008201548152602001600182018054610d28906142a4565b80601f0160208091040260200160405190810160405280929190818152602001828054610d54906142a4565b8015610da15780601f10610d7657610100808354040283529160200191610da1565b820191906000526020600020905b815481529060010190602001808311610d8457829003601f168201915b5050505050815260200160028201548152602001600382018054610dc4906142a4565b80601f0160208091040260200160405190810160405280929190818152602001828054610df0906142a4565b8015610e3d5780601f10610e1257610100808354040283529160200191610e3d565b820191906000526020600020905b815481529060010190602001808311610e2057829003601f168201915b50505050508152505081526020019060010190610ceb565b50505050905090565b610e666125cb565b6001600160a01b0316610e7761140f565b6001600160a01b031614610e9d5760405162461bcd60e51b815260040161060890613e91565b610edd6040518060400160405280601781526020017f61747461636b496e6465786573204c454e474854203b200000000000000000008152508251612569565b60005b815181101561102157600a6040518060800160405280848481518110610f1657634e487b7160e01b600052603260045260246000fd5b60200260200101518152602001878481518110610f4357634e487b7160e01b600052603260045260246000fd5b60200260200101518152602001858481518110610f7057634e487b7160e01b600052603260045260246000fd5b60200260200101518152602001868481518110610f9d57634e487b7160e01b600052603260045260246000fd5b602090810291909101810151909152825460018181018555600094855293829020835160049092020190815582820151805193949193610fe593928501929190910190612ecd565b50604082015160028201556060820151805161100b916003840191602090910190612ecd565b5050508080611019906142df565b915050610ee0565b506110606040518060400160405280601781526020017f446f6e6520616464696e6720616c6c2061747461636b7300000000000000000081525061263d565b50505050565b610a8b838383604051806020016040528060008152506116b4565b6060600b805480602002602001604051908101604052809291908181526020016000905b82821015610e5557838290600052602060002090600502016040518060a001604052908160008201548152602001600182015481526020016002820180546110ec906142a4565b80601f0160208091040260200160405190810160405280929190818152602001828054611118906142a4565b80156111655780601f1061113a57610100808354040283529160200191611165565b820191906000526020600020905b81548152906001019060200180831161114857829003601f168201915b5050505050815260200160038201548152602001600482018054611188906142a4565b80601f01602080910402602001604051908101604052809291908181526020018280546111b4906142a4565b80156112015780601f106111d657610100808354040283529160200191611201565b820191906000526020600020905b8154815290600101906020018083116111e457829003601f168201915b505050505081525050815260200190600101906110a5565b6000818152600260205260408120546001600160a01b0316806105c15760405162461bcd60e51b815260040161060890613d7a565b60006001600160a01b0382166112765760405162461bcd60e51b815260040161060890613d30565b506001600160a01b031660009081526003602052604090205490565b61129a6125cb565b6001600160a01b03166112ab61140f565b6001600160a01b0316146112d15760405162461bcd60e51b815260040161060890613e91565b6112db6000612832565b565b60136020526000908152604090205481565b336000908152601360205260409020548061131c5760405162461bcd60e51b81526004016106089061405b565b6000818152601260205260409020600381015461134b5760405162461bcd60e51b8152600401610608906140a6565b34600b848154811061136d57634e487b7160e01b600052603260045260246000fd5b906000526020600020906005020160000154670de0b6b3a76400006113929190614242565b10156113b05760405162461bcd60e51b815260040161060890613f50565b6006810180546001810182556000918252602090912001839055600e5460038201546040517f838ab28464562786a6c4ab2311964b82fa60bd9b14aa7e856af1f3f18d41a414926114029290916141ba565b60405180910390a1505050565b6007546001600160a01b031690565b606060018054610932906142a4565b6012602052600090815260409020805460018201805491929161144f906142a4565b80601f016020809104026020016040519081016040528092919081815260200182805461147b906142a4565b80156114c85780601f1061149d576101008083540402835291602001916114c8565b820191906000526020600020905b8154815290600101906020018083116114ab57829003601f168201915b5050505050908060020180546114dd906142a4565b80601f0160208091040260200160405190810160405280929190818152602001828054611509906142a4565b80156115565780601f1061152b57610100808354040283529160200191611556565b820191906000526020600020905b81548152906001019060200180831161153957829003601f168201915b5050505050908060030154908060040154905085565b61157e6115776125cb565b8383612884565b5050565b600c80548190611591906142a4565b80601f01602080910402602001604051908101604052809291908181526020018280546115bd906142a4565b801561160a5780601f106115df5761010080835404028352916020019161160a565b820191906000526020600020905b8154815290600101906020018083116115ed57829003601f168201915b50505050509080600101805461161f906142a4565b80601f016020809104026020016040519081016040528092919081815260200182805461164b906142a4565b80156116985780601f1061166d57610100808354040283529160200191611698565b820191906000526020600020905b81548152906001019060200180831161167b57829003601f168201915b5050505050908060020154908060030154908060040154905085565b6116c56116bf6125cb565b83612680565b6116e15760405162461bcd60e51b81526004016106089061400a565b61106084848484612927565b60606011805480602002602001604051908101604052809291908181526020016000905b82821015610e5557838290600052602060002090600702016040518060e00160405290816000820154815260200160018201805461174e906142a4565b80601f016020809104026020016040519081016040528092919081815260200182805461177a906142a4565b80156117c75780601f1061179c576101008083540402835291602001916117c7565b820191906000526020600020905b8154815290600101906020018083116117aa57829003601f168201915b505050505081526020016002820180546117e0906142a4565b80601f016020809104026020016040519081016040528092919081815260200182805461180c906142a4565b80156118595780601f1061182e57610100808354040283529160200191611859565b820191906000526020600020905b81548152906001019060200180831161183c57829003601f168201915b505050505081526020016003820154815260200160048201548152602001600582018054806020026020016040519081016040528092919081815260200182805480156118c557602002820191906000526020600020905b8154815260200190600101908083116118b1575b505050505081526020016006820180548060200260200160405190810160405280929190818152602001828054801561191d57602002820191906000526020600020905b815481526020019060010190808311611909575b50505050508152505081526020019060010190611711565b6000818152601260209081526040808320815160e0810190925280548252600181018054606095948401919061196a906142a4565b80601f0160208091040260200160405190810160405280929190818152602001828054611996906142a4565b80156119e35780601f106119b8576101008083540402835291602001916119e3565b820191906000526020600020905b8154815290600101906020018083116119c657829003601f168201915b505050505081526020016002820180546119fc906142a4565b80601f0160208091040260200160405190810160405280929190818152602001828054611a28906142a4565b8015611a755780601f10611a4a57610100808354040283529160200191611a75565b820191906000526020600020905b815481529060010190602001808311611a5857829003601f168201915b50505050508152602001600382015481526020016004820154815260200160058201805480602002602001604051908101604052809291908181526020018280548015611ae157602002820191906000526020600020905b815481526020019060010190808311611acd575b5050505050815260200160068201805480602002602001604051908101604052809291908181526020018280548015611b3957602002820191906000526020600020905b815481526020019060010190808311611b25575b50505050508152505090506000611b53826060015161295a565b90506000611b64836080015161295a565b90506000611ba88460200151611b798861295a565b86604001518686604051602001611b949594939291906135a8565b604051602081830303815290604052612a75565b9050600081604051602001611bbd9190613711565b60408051808303601f19018152919052979650505050505050565b611be0612f4d565b336000908152601360205260409020548015611e0e57601260008281526020019081526020016000206040518060e001604052908160008201548152602001600182018054611c2e906142a4565b80601f0160208091040260200160405190810160405280929190818152602001828054611c5a906142a4565b8015611ca75780601f10611c7c57610100808354040283529160200191611ca7565b820191906000526020600020905b815481529060010190602001808311611c8a57829003601f168201915b50505050508152602001600282018054611cc0906142a4565b80601f0160208091040260200160405190810160405280929190818152602001828054611cec906142a4565b8015611d395780601f10611d0e57610100808354040283529160200191611d39565b820191906000526020600020905b815481529060010190602001808311611d1c57829003601f168201915b50505050508152602001600382015481526020016004820154815260200160058201805480602002602001604051908101604052809291908181526020018280548015611da557602002820191906000526020600020905b815481526020019060010190808311611d91575b5050505050815260200160068201805480602002602001604051908101604052809291908181526020018280548015611dfd57602002820191906000526020600020905b815481526020019060010190808311611de9575b505050505081525050915050610920565b611e16612f4d565b91506109209050565b5090565b6001600160a01b03918216600090815260056020908152604080832093909416825291909152205460ff1690565b611e596125cb565b6001600160a01b0316611e6a61140f565b6001600160a01b031614611e905760405162461bcd60e51b815260040161060890613e91565b6001600160a01b038116611eb65760405162461bcd60e51b815260040161060890613ad9565b611ebf81612832565b50565b6011548110611ee35760405162461bcd60e51b815260040161060890613c9c565b600954604051636eb1769f60e11b8152678ac7230489e80000916001600160a01b03169063dd62ed3e90611f1d903390309060040161376a565b60206040518083038186803b158015611f3557600080fd5b505afa158015611f49573d6000803e3d6000fd5b505050506040513d601f19601f82011682018060405250810190611f6d9190613458565b1015611f8b5760405162461bcd60e51b815260040161060890613fad565b6009546040516323b872dd60e01b81526001600160a01b03909116906323b872dd90611fbf90339030903490600401613784565b602060405180830381600087803b158015611fd957600080fd5b505af1158015611fed573d6000803e3d6000fd5b505050506040513d601f19601f8201168201806040525081019061201191906133ec565b50600061201e6008612be9565b905061202a3382612bed565b6040518060e001604052808381526020016011848154811061205c57634e487b7160e01b600052603260045260246000fd5b90600052602060002090600702016001018054612078906142a4565b80601f01602080910402602001604051908101604052809291908181526020018280546120a4906142a4565b80156120f15780601f106120c6576101008083540402835291602001916120f1565b820191906000526020600020905b8154815290600101906020018083116120d457829003601f168201915b505050505081526020016011848154811061211c57634e487b7160e01b600052603260045260246000fd5b90600052602060002090600702016002018054612138906142a4565b80601f0160208091040260200160405190810160405280929190818152602001828054612164906142a4565b80156121b15780601f10612186576101008083540402835291602001916121b1565b820191906000526020600020905b81548152906001019060200180831161219457829003601f168201915b50505050508152602001601184815481106121dc57634e487b7160e01b600052603260045260246000fd5b90600052602060002090600702016003015481526020016011848154811061221457634e487b7160e01b600052603260045260246000fd5b90600052602060002090600702016004015481526020016011848154811061224c57634e487b7160e01b600052603260045260246000fd5b90600052602060002090600702016005018054806020026020016040519081016040528092919081815260200182805480156122a757602002820191906000526020600020905b815481526020019060010190808311612293575b50505050508152602001601184815481106122d257634e487b7160e01b600052603260045260246000fd5b906000526020600020906007020160060180548060200260200160405190810160405280929190818152602001828054801561232d57602002820191906000526020600020905b815481526020019060010190808311612319575b505050919092525050600082815260126020908152604090912082518155828201518051919261236592600185019290910190612ecd565b5060408201518051612381916002840191602090910190612ecd565b50606082015160038201556080820151600482015560a082015180516123b1916005840191602090910190612f8a565b5060c082015180516123cd916006840191602090910190612f8a565b509050506123f46040518060600160405280602e8152602001614402602e91398284612c07565b3360009081526013602052604090208190556124106008612547565b6040805180820182526013815272021b7b73a3930b1ba103130b630b731b2901d1606d1b602082015260095491516370a0823160e01b81526124bf926001600160a01b0316906370a082319061246a903090600401613756565b60206040518083038186803b15801561248257600080fd5b505afa158015612496573d6000803e3d6000fd5b505050506040513d601f19601f820116820180604052508101906124ba9190613458565b612569565b7f4bc303fd457a97b4691b9af582ce71868a3d258638c8d4f8c60988a0f0bfb8cd3382846040516124f2939291906137e5565b60405180910390a15050565b6110608484848460405160240161251894939291906139b3565b60408051601f198184030181529190526020810180516001600160e01b0316638d142cdd60e01b179052612c4a565b80546001019055565b6001600160e01b031981166301ffc9a760e01b14919050565b61157e828260405160240161257f929190613a40565b60408051601f198184030181529190526020810180516001600160e01b03166309710a9d60e41b179052612c4a565b6000908152600260205260409020546001600160a01b0316151590565b3390565b600081815260046020526040902080546001600160a01b0319166001600160a01b038416908117909155819061260482611219565b6001600160a01b03167f8c5be1e5ebec7d5bd14f71427d1e84f3dd0314c0f7b2291e5b200ac8c7c3b92560405160405180910390a45050565b611ebf8160405160240161265191906139a0565b60408051601f198184030181529190526020810180516001600160e01b031663104c13eb60e21b179052612c4a565b600061268b826125ae565b6126a75760405162461bcd60e51b815260040161060890613c50565b60006126b283611219565b9050806001600160a01b0316846001600160a01b031614806126ed5750836001600160a01b03166126e2846109b5565b6001600160a01b0316145b806126fd57506126fd8185611e23565b949350505050565b826001600160a01b031661271882611219565b6001600160a01b03161461273e5760405162461bcd60e51b815260040161060890613ec6565b6001600160a01b0382166127645760405162461bcd60e51b815260040161060890613b9e565b61276f838383610a8b565b61277a6000826125cf565b6001600160a01b03831660009081526003602052604081208054600192906127a3908490614261565b90915550506001600160a01b03821660009081526003602052604081208054600192906127d1908490614216565b909155505060008181526002602052604080822080546001600160a01b0319166001600160a01b0386811691821790925591518493918716917fddf252ad1be2c89b69c2b068fc378daa952ba7f163c4a11628f55a4df523b3ef91a4505050565b600780546001600160a01b038381166001600160a01b0319831681179093556040519116919082907f8be0079c531659141344cd1fd0a4f28419497f9722a3daafe3b4186f6b6457e090600090a35050565b816001600160a01b0316836001600160a01b031614156128b65760405162461bcd60e51b815260040161060890613be2565b6001600160a01b0383811660008181526005602090815260408083209487168084529490915290819020805460ff1916851515179055517f17307eab39ab6107e8899845ad3d59bd9653f200f220920489ca2b5937696c319061291a908590613995565b60405180910390a3505050565b612932848484612705565b61293e84848484612c6b565b6110605760405162461bcd60e51b815260040161060890613a87565b60608161297f57506040805180820190915260018152600360fc1b60208201526105c4565b8160005b81156129a95780612993816142df565b91506129a29050600a8361422e565b9150612983565b60008167ffffffffffffffff8111156129d257634e487b7160e01b600052604160045260246000fd5b6040519080825280601f01601f1916602001820160405280156129fc576020820181803683370190505b5090505b84156126fd57612a11600183614261565b9150612a1e600a866142fa565b612a29906030614216565b60f81b818381518110612a4c57634e487b7160e01b600052603260045260246000fd5b60200101906001600160f81b031916908160001a905350612a6e600a8661422e565b9450612a00565b805160609080612a955750506040805160208101909152600081526105c4565b60006003612aa4836002614216565b612aae919061422e565b612ab9906004614242565b90506000612ac8826020614216565b67ffffffffffffffff811115612aee57634e487b7160e01b600052604160045260246000fd5b6040519080825280601f01601f191660200182016040528015612b18576020820181803683370190505b509050600060405180606001604052806040815260200161439a604091399050600181016020830160005b86811015612ba4576003818a01810151603f601282901c8116860151600c83901c8216870151600684901c831688015192909316870151600891821b60ff94851601821b92841692909201901b91160160e01b835260049092019101612b43565b506003860660018114612bbe5760028114612bcf57612bdb565b613d3d60f01b600119830152612bdb565b603d60f81b6000198301525b505050918152949350505050565b5490565b61157e828260405180602001604052806000815250612d86565b610a8b838383604051602401612c1f93929190613a62565b60408051601f198184030181529190526020810180516001600160e01b031663969cdd0360e01b1790525b80516a636f6e736f6c652e6c6f67602083016000808483855afa5050505050565b6000612c7f846001600160a01b0316612db9565b15612d7b57836001600160a01b031663150b7a02612c9b6125cb565b8786866040518563ffffffff1660e01b8152600401612cbd94939291906137a8565b602060405180830381600087803b158015612cd757600080fd5b505af1925050508015612d07575060408051601f3d908101601f19168201909252612d0491810190613424565b60015b612d61573d808015612d35576040519150601f19603f3d011682016040523d82523d6000602084013e612d3a565b606091505b508051612d595760405162461bcd60e51b815260040161060890613a87565b805181602001fd5b6001600160e01b031916630a85bd0160e11b1490506126fd565b506001949350505050565b612d908383612dbf565b612d9d6000848484612c6b565b610a8b5760405162461bcd60e51b815260040161060890613a87565b3b151590565b6001600160a01b038216612de55760405162461bcd60e51b815260040161060890613e10565b612dee816125ae565b15612e0b5760405162461bcd60e51b815260040161060890613b67565b612e1760008383610a8b565b6001600160a01b0382166000908152600360205260408120805460019290612e40908490614216565b909155505060008181526002602052604080822080546001600160a01b0319166001600160a01b03861690811790915590518392907fddf252ad1be2c89b69c2b068fc378daa952ba7f163c4a11628f55a4df523b3ef908290a45050565b6040518060a0016040528060608152602001606081526020016000815260200160008152602001600081525090565b828054612ed9906142a4565b90600052602060002090601f016020900481019282612efb5760008555612f41565b82601f10612f1457805160ff1916838001178555612f41565b82800160010185558215612f41579182015b82811115612f41578251825591602001919060010190612f26565b50611e1f929150612fc4565b6040518060e00160405280600081526020016060815260200160608152602001600081526020016000815260200160608152602001606081525090565b828054828255906000526020600020908101928215612f415791602002820182811115612f41578251825591602001919060010190612f26565b5b80821115611e1f5760008155600101612fc5565b600067ffffffffffffffff831115612ff357612ff361433a565b613006601f8401601f19166020016141c8565b905082815283838301111561301a57600080fd5b828260208301376000602084830101529392505050565b80356001600160a01b03811681146105c457600080fd5b600082601f830112613058578081fd5b8135602061306d613068836141f2565b6141c8565b82815281810190858301855b858110156130b7578135880189603f820112613093578788fd5b6130a48a8783013560408401612fd9565b8552509284019290840190600101613079565b5090979650505050505050565b600082601f8301126130d4578081fd5b813560206130e4613068836141f2565b8281528181019085830183850287018401881015613100578586fd5b855b858110156130b757813584529284019290840190600101613102565b60006020828403121561312f578081fd5b61313882613031565b9392505050565b60008060408385031215613151578081fd5b61315a83613031565b915061316860208401613031565b90509250929050565b600080600060608486031215613185578081fd5b61318e84613031565b925061319c60208501613031565b9150604084013590509250925092565b600080600080608085870312156131c1578081fd5b6131ca85613031565b93506131d860208601613031565b925060408501359150606085013567ffffffffffffffff8111156131fa578182fd5b8501601f8101871361320a578182fd5b61321987823560208401612fd9565b91505092959194509250565b60008060408385031215613237578182fd5b61324083613031565b9150602083013561325081614350565b809150509250929050565b6000806040838503121561326d578182fd5b61327683613031565b946020939093013593505050565b60008060008060808587031215613299578384fd5b843567ffffffffffffffff808211156132b0578586fd5b6132bc88838901613048565b955060208701359150808211156132d1578485fd5b6132dd88838901613048565b945060408701359150808211156132f2578384fd5b6132fe888389016130c4565b93506060870135915080821115613313578283fd5b50613219878288016130c4565b600080600080600060a08688031215613337578283fd5b853567ffffffffffffffff8082111561334e578485fd5b61335a89838a01613048565b9650602088013591508082111561336f578485fd5b61337b89838a01613048565b95506040880135915080821115613390578485fd5b61339c89838a016130c4565b945060608801359150808211156133b1578283fd5b6133bd89838a016130c4565b935060808801359150808211156133d2578283fd5b506133df888289016130c4565b9150509295509295909350565b6000602082840312156133fd578081fd5b815161313881614350565b600060208284031215613419578081fd5b81356131388161435e565b600060208284031215613435578081fd5b81516131388161435e565b600060208284031215613451578081fd5b5035919050565b600060208284031215613469578081fd5b5051919050565b6000815180845260208085019450808401835b8381101561349f57815187529582019590820190600101613483565b509495945050505050565b600081518084526134c2816020860160208601614278565b601f01601f19169290920160200192915050565b600081516134e8818560208601614278565b9290920192915050565b6e016101136b0bc2fbb30b63ab2911d1608d1b8152600f0190565b653e96102ebe9160d11b815260060190565b600081518352602082015160e0602085015261353e60e08501826134aa565b90506040830151848203604086015261355782826134aa565b915050606083015160608501526080830151608085015260a083015184820360a08601526135858282613470565b91505060c083015184820360c086015261359f8282613470565b95945050505050565b693d913730b6b2911d101160b11b815285516000906135ce81600a850160208b01614278565b6a01016969027232a10119d160ad1b600a9184019182015286516135f9816015840160208b01614278565b7f222c20226465736372697074696f6e223a20225468697320697320616e204e46601592909101918201527f542074686174206c6574732070656f706c6520706c617920696e20746865206760358201527f616d65204d657461766572736520536c6179657221222c2022696d616765223a605582015261101160f11b6075820152855161368e816077840160208a01614278565b7f222c202261747472696275746573223a205b7b2274726169745f74797065223a607792909101918201527f20224865616c746820506f696e7473222c202276616c7565223a20000000000060978201526137056137006136fa6136f560b28501896134d6565b6134f2565b866134d6565b61350d565b98975050505050505050565b60007f646174613a6170706c69636174696f6e2f6a736f6e3b6261736536342c0000008252825161374981601d850160208701614278565b91909101601d0192915050565b6001600160a01b0391909116815260200190565b6001600160a01b0392831681529116602082015260400190565b6001600160a01b039384168152919092166020820152604081019190915260600190565b6001600160a01b03858116825284166020820152604081018390526080606082018190526000906137db908301846134aa565b9695505050505050565b6001600160a01b039390931683526020830191909152604082015260600190565b60208082528251828201819052600091906040908185019080840286018301878501865b8381101561389157603f19898403018552815160808151855288820151818a870152613858828701826134aa565b91505087820151888601526060808301519250858203818701525061387d81836134aa565b96890196945050509086019060010161382a565b509098975050505050505050565b6000602080830181845280855180835260408601915060408482028701019250838701855b828110156138f257603f198886030184526138e085835161351f565b945092850192908501906001016138c4565b5092979650505050505050565b60208082528251828201819052600091906040908185019080840286018301878501865b8381101561389157603f19898403018552815160a0815185528882015189860152878201518189870152613959828701826134aa565b91505060608083015181870152506080808301519250858203818701525061398181836134aa565b968901969450505090860190600101613923565b901515815260200190565b60006020825261313860208301846134aa565b6000608082526139c660808301876134aa565b82810360208401526139d881876134aa565b905084604084015282810360608401526139f281856134aa565b979650505050505050565b600060a08252613a1060a08301886134aa565b8281036020840152613a2281886134aa565b60408401969096525050606081019290925260809091015292915050565b600060408252613a5360408301856134aa565b90508260208301529392505050565b600060608252613a7560608301866134aa565b60208301949094525060400152919050565b60208082526032908201527f4552433732313a207472616e7366657220746f206e6f6e20455243373231526560408201527131b2b4bb32b91034b6b83632b6b2b73a32b960711b606082015260800190565b60208082526026908201527f4f776e61626c653a206e6577206f776e657220697320746865207a65726f206160408201526564647265737360d01b606082015260800190565b60208082526028908201527f4572726f723a20626f7373206d757374206861766520485020746f206174746160408201526731b5903137b9b99760c11b606082015260800190565b6020808252601c908201527f4552433732313a20746f6b656e20616c7265616479206d696e74656400000000604082015260600190565b60208082526024908201527f4552433732313a207472616e7366657220746f20746865207a65726f206164646040820152637265737360e01b606082015260800190565b60208082526019908201527f4552433732313a20617070726f766520746f2063616c6c657200000000000000604082015260600190565b6020808252601f908201527f4572726f723a2061747461636b206d75737420686176652064616d6167652e00604082015260600190565b6020808252602c908201527f4552433732313a206f70657261746f7220717565727920666f72206e6f6e657860408201526b34b9ba32b73a103a37b5b2b760a11b606082015260800190565b6020808252601d908201527f43686172616374657220696e646578206f7574206f6620626f756e6473000000604082015260600190565b60208082526038908201527f4552433732313a20617070726f76652063616c6c6572206973206e6f74206f7760408201527f6e6572206e6f7220617070726f76656420666f7220616c6c0000000000000000606082015260800190565b6020808252602a908201527f4552433732313a2062616c616e636520717565727920666f7220746865207a65604082015269726f206164647265737360b01b606082015260800190565b60208082526029908201527f4552433732313a206f776e657220717565727920666f72206e6f6e657869737460408201526832b73a103a37b5b2b760b91b606082015260800190565b6020808252602d908201527f4572726f723a20636861726163746572206d757374206861766520485020746f60408201526c1030ba3a30b1b5903137b9b99760991b606082015260800190565b6020808252818101527f4552433732313a206d696e7420746f20746865207a65726f2061646472657373604082015260600190565b6020808252602c908201527f4552433732313a20617070726f76656420717565727920666f72206e6f6e657860408201526b34b9ba32b73a103a37b5b2b760a11b606082015260800190565b6020808252818101527f4f776e61626c653a2063616c6c6572206973206e6f7420746865206f776e6572604082015260600190565b60208082526029908201527f4552433732313a207472616e73666572206f6620746f6b656e2074686174206960408201526839903737ba1037bbb760b91b606082015260800190565b60208082526021908201527f4552433732313a20617070726f76616c20746f2063757272656e74206f776e656040820152603960f91b606082015260800190565b6020808252603c908201527f4572726f723a2075736572206d7573742070726f7669646520656e6f7567682060408201527f746f6b656e20746f20627579207370656369616c2061747461636b2e00000000606082015260800190565b60208082526039908201527f506c6561736520617070726f76652074686520726571756972656420746f6b6560408201527f6e207472616e73666572206265666f7265206d696e74696e6700000000000000606082015260800190565b60208082526031908201527f4552433732313a207472616e736665722063616c6c6572206973206e6f74206f6040820152701ddb995c881b9bdc88185c1c1c9bdd9959607a1b606082015260800190565b6020808252602b908201527f4572726f723a206d7573742068617665204e465420746f20627579207370656360408201526a34b0b61030ba3a30b1b59760a91b606082015260800190565b60208082526034908201527f4572726f723a20636861726163746572206d757374206861766520485020746f60408201527310313abc9039b832b1b4b0b61030ba3a30b1b59760611b606082015260800190565b600060208252825160a0602084015261411660c08401826134aa565b90506020840151601f1984830301604085015261413382826134aa565b9150506040840151606084015260608401516080840152608084015160a08401528091505092915050565b600060208252613138602083018461351f565b90815260200190565b600086825260a0602083015261419360a08301876134aa565b82810360408401526141a581876134aa565b60608401959095525050608001529392505050565b918252602082015260400190565b60405181810167ffffffffffffffff811182821017156141ea576141ea61433a565b604052919050565b600067ffffffffffffffff82111561420c5761420c61433a565b5060209081020190565b600082198211156142295761422961430e565b500190565b60008261423d5761423d614324565b500490565b600081600019048311821515161561425c5761425c61430e565b500290565b6000828210156142735761427361430e565b500390565b60005b8381101561429357818101518382015260200161427b565b838111156110605750506000910152565b6002810460018216806142b857607f821691505b602082108114156142d957634e487b7160e01b600052602260045260246000fd5b50919050565b60006000198214156142f3576142f361430e565b5060010190565b60008261430957614309614324565b500690565b634e487b7160e01b600052601160045260246000fd5b634e487b7160e01b600052601260045260246000fd5b634e487b7160e01b600052604160045260246000fd5b8015158114611ebf57600080fd5b6001600160e01b031981168114611ebf57600080fdfe506c617965722061747461636b656420626f73732e204e657720626f73732068703a2025734142434445464748494a4b4c4d4e4f505152535455565758595a6162636465666768696a6b6c6d6e6f707172737475767778797a303132333435363738392b2f426f73732061747461636b656420706c617965722e204e657720706c617965722068703a2025730a4d696e746564204e465420772f20746f6b656e496420257320616e6420636861726163746572496e646578202573a2646970667358221220e16ea02e5217648ab0a7745929e069f49997fa302fd90a994620499ff488d9e164736f6c63430008000033446f6e6520696e697469616c697a696e6720257320772f2048502025732c20696d67202573446f6e6520696e697469616c697a696e6720626f737320257320772f2048502025732c20696d67202573",
  "linkReferences": {},
  "deployedLinkReferences": {}
}